:020000040000FA
:0400000003EF00F01A
:020004000000FA
:0A000600000E956E030E936E8198B4
:10001000100E006E030E936E19EC00F0010E936E3D
:1000200035EC00F0818885EC00F02DEC00F007EF56
:1000300000F000C083FF9CEC00F081A024EC00F0F5
:1000400081A2120019EF00F000506008D8A42AEF36
:1000500000F01200100E002612009CEC00F081A0AF
:10006000120081A212002DEF00F03FEC00F044ECF2
:1000700000F000500008D8A435EF00F01200070E81
:10008000005E00C083FF120000C083FF76EC00F02A
:10009000000600C083FF76EC00F0000600C083FF7E
:1000A00076EC00F0000600C083FF76EC00F000065E
:1000B00000C083FF76EC00F0000600C083FF76EC02
:1000C00000F0000600C083FF76EC00F0000600C0E0
:1000D00083FF76EC00F0000600C083FF76EC00F0B2
:1000E000000600C083FF76EC00F012000B0E046ED9
:1000F0008DEC00F08DEC00F08DEC00F08DEC00F05C
:100100008DEC00F00406F4E11200FF0E086E000012
:10011000000000000806FBE11200710E036E85EC82
:1001200000F085EC00F085EC00F085EC00F085EC4B
:1001300000F00306F4E11200280E106E85EC00F0CA
:1001400085EC00F085EC00F085EC00F085EC00F02B
:060150001006F4E11200AC
:020000040030CA
:010005008179
:00000001FF
