:020000040000FA
:040000005DEF3FF081
:107EB0000638F00B0810836E1200086A076A00018A
:107EC00095EF3FF03C0E076E72EF3FF0060E026E2C
:107ED000130E016EAE0EE82EFED7012EFCD7022E39
:107EE000FAD707060750D8A478EF3FF07AEF3FF0B3
:107EF00066EF3FF01200062A052A060E056483EF9E
:107F00003FF085EF3FF089EF3FF0010E066E010E66
:107F1000056E030E026E8A0E016E560EE82EFED717
:107F2000012EFCD7022EFAD71200938093829398E9
:107F3000000E956E000E086E010E066E010E056EA7
:107F400058EC3FF081B0A7EF3FF0A9EF3FF0ABEF67
:107F50003FF07BEC3FF081B2B0EF3FF0B2EF3FF08B
:107F6000A0EF3FF0B8EC3FF0A0EF3FF000EF00F0E3
:107F7000CEEF3FF00850D8A4C0EF3FF0C2EF3FF083
:107F8000C9EF3FF00606090E086E62EC3FF058ECB0
:107F90003FF0080662EC3FF058EC3FF00850D8A4E0
:107FA000D4EF3FF0D6EF3FF0BAEF3FF00650D8A441
:107FB000DCEF3FF0DEEF3FF0BAEF3FF0E1EF3FF0F4
:107FC000818881A0E6EF3FF0E8EF3FF0EFEF3FF070
:107FD00081B2EDEF3FF0EFEF3FF0E0EF3FF081983F
:107FE000010E066E010E056E030E046E8A0E036E00
:107FF000560EE82EFED7032EFCD7042EFAD7120019
:020000040020DA
:08000000FFFFFFFFFFFFFFFF00
:020000040030CA
:0E00000000051F1FFF8385FF0FC00FE00F409C
:00000001FF
